{
  "_format": "hh-sol-artifact-1",
  "contractName": "Board",
  "sourceName": "contracts/Board.sol",
  "abi": [
    {
      "anonymous": false,
      "inputs": [
        {
          "indexed": false,
          "internalType": "address",
          "name": "user",
          "type": "address"
        },
        {
          "indexed": false,
          "internalType": "uint256",
          "name": "x",
          "type": "uint256"
        },
        {
          "indexed": false,
          "internalType": "uint256",
          "name": "y",
          "type": "uint256"
        },
        {
          "indexed": false,
          "internalType": "string",
          "name": "color",
          "type": "string"
        }
      ],
      "name": "Placed",
      "type": "event"
    },
    {
      "inputs": [
        {
          "internalType": "uint256",
          "name": "",
          "type": "uint256"
        },
        {
          "internalType": "uint256",
          "name": "",
          "type": "uint256"
        }
      ],
      "name": "board",
      "outputs": [
        {
          "internalType": "string",
          "name": "",
          "type": "string"
        }
      ],
      "stateMutability": "view",
      "type": "function"
    },
    {
      "inputs": [],
      "name": "getBoard",
      "outputs": [
        {
          "internalType": "string[20][20]",
          "name": "",
          "type": "string[20][20]"
        }
      ],
      "stateMutability": "view",
      "type": "function"
    },
    {
      "inputs": [
        {
          "components": [
            {
              "internalType": "uint8",
              "name": "x",
              "type": "uint8"
            },
            {
              "internalType": "uint8",
              "name": "y",
              "type": "uint8"
            },
            {
              "internalType": "string",
              "name": "color",
              "type": "string"
            }
          ],
          "internalType": "struct PlaceStruct",
          "name": "input",
          "type": "tuple"
        }
      ],
      "name": "place",
      "outputs": [],
      "stateMutability": "nonpayable",
      "type": "function"
    }
  ],
  "bytecode": "0x608060405234801561001057600080fd5b50610cfa806100206000396000f3fe608060405234801561001057600080fd5b50600436106100415760003560e01c80633264a34b146100465780638086a92a14610064578063962a682714610094575b600080fd5b61004e6100b0565b60405161005b9190610569565b60405180910390f35b61007e600480360381019061007991906105d5565b6101b5565b60405161008b919061065f565b60405180910390f35b6100ae60048036038101906100a991906106a5565b61026b565b005b6100b8610317565b6000601480602002604051908101604052809291906000905b828210156101ac57838260140201601480602002604051908101604052809291906000905b8282101561019957838201805461010c9061071d565b80601f01602080910402602001604051908101604052809291908181526020018280546101389061071d565b80156101855780601f1061015a57610100808354040283529160200191610185565b820191906000526020600020905b81548152906001019060200180831161016857829003601f168201915b5050505050815260200190600101906100f6565b50505050815260200190600101906100d1565b50505050905090565b600082601481106101c557600080fd5b6014020181601481106101d757600080fd5b016000915091505080546101ea9061071d565b80601f01602080910402602001604051908101604052809291908181526020018280546102169061071d565b80156102635780601f1061023857610100808354040283529160200191610263565b820191906000526020600020905b81548152906001019060200180831161024657829003601f168201915b505050505081565b61027d8161027890610946565b610280565b50565b80604001516000826000015160ff16601481106102a05761029f610959565b5b60140201826020015160ff16601481106102bd576102bc610959565b5b0190816102ca9190610b34565b507f5a36643dd1c4d386649993a1f3dc54d93c52df759b783c7056d447bae7c88ea03382600001518360200151846040015160405161030c9493929190610c78565b60405180910390a150565b6040518061028001604052806014905b61032f610345565b8152602001906001900390816103275790505090565b6040518061028001604052806014905b60608152602001906001900390816103555790505090565b600060149050919050565b600081905092915050565b6000819050919050565b600060149050919050565b600081905092915050565b6000819050919050565b600081519050919050565b600082825260208201905092915050565b60005b838110156103e75780820151818401526020810190506103cc565b60008484015250505050565b6000601f19601f8301169050919050565b600061040f826103ad565b61041981856103b8565b93506104298185602086016103c9565b610432816103f3565b840191505092915050565b60006104498383610404565b905092915050565b6000602082019050919050565b60006104698261038d565b6104738185610398565b935083602082028501610485856103a3565b8060005b858110156104c157848403895281516104a2858261043d565b94506104ad83610451565b925060208a01995050600181019050610489565b50829750879550505050505092915050565b60006104df838361045e565b905092915050565b6000602082019050919050565b60006104ff8261036d565b6105098185610378565b93508360208202850161051b85610383565b8060005b85811015610557578484038952815161053885826104d3565b9450610543836104e7565b925060208a0199505060018101905061051f565b50829750879550505050505092915050565b6000602082019050818103600083015261058381846104f4565b905092915050565b6000604051905090565b600080fd5b600080fd5b6000819050919050565b6105b28161059f565b81146105bd57600080fd5b50565b6000813590506105cf816105a9565b92915050565b600080604083850312156105ec576105eb610595565b5b60006105fa858286016105c0565b925050602061060b858286016105c0565b9150509250929050565b600082825260208201905092915050565b6000610631826103ad565b61063b8185610615565b935061064b8185602086016103c9565b610654816103f3565b840191505092915050565b600060208201905081810360008301526106798184610626565b905092915050565b600080fd5b60006060828403121561069c5761069b610681565b5b81905092915050565b6000602082840312156106bb576106ba610595565b5b600082013567ffffffffffffffff8111156106d9576106d861059a565b5b6106e584828501610686565b91505092915050565b7f4e487b7100000000000000000000000000000000000000000000000000000000600052602260045260246000fd5b6000600282049050600182168061073557607f821691505b602082108103610748576107476106ee565b5b50919050565b600080fd5b7f4e487b7100000000000000000000000000000000000000000000000000000000600052604160045260246000fd5b61078b826103f3565b810181811067ffffffffffffffff821117156107aa576107a9610753565b5b80604052505050565b60006107bd61058b565b90506107c98282610782565b919050565b600080fd5b600060ff82169050919050565b6107e9816107d3565b81146107f457600080fd5b50565b600081359050610806816107e0565b92915050565b600080fd5b600080fd5b600067ffffffffffffffff82111561083157610830610753565b5b61083a826103f3565b9050602081019050919050565b82818337600083830152505050565b600061086961086484610816565b6107b3565b90508281526020810184848401111561088557610884610811565b5b610890848285610847565b509392505050565b600082601f8301126108ad576108ac61080c565b5b81356108bd848260208601610856565b91505092915050565b6000606082840312156108dc576108db61074e565b5b6108e660606107b3565b905060006108f6848285016107f7565b600083015250602061090a848285016107f7565b602083015250604082013567ffffffffffffffff81111561092e5761092d6107ce565b5b61093a84828501610898565b60408301525092915050565b600061095236836108c6565b9050919050565b7f4e487b7100000000000000000000000000000000000000000000000000000000600052603260045260246000fd5b60008190508160005260206000209050919050565b60006020601f8301049050919050565b600082821b905092915050565b6000600883026109ea7fffffffffffffffffffffffffffffffffffffffffffffffffffffffffffffffff826109ad565b6109f486836109ad565b95508019841693508086168417925050509392505050565b6000819050919050565b6000610a31610a2c610a278461059f565b610a0c565b61059f565b9050919050565b6000819050919050565b610a4b83610a16565b610a5f610a5782610a38565b8484546109ba565b825550505050565b600090565b610a74610a67565b610a7f818484610a42565b505050565b5b81811015610aa357610a98600082610a6c565b600181019050610a85565b5050565b601f821115610ae857610ab981610988565b610ac28461099d565b81016020851015610ad1578190505b610ae5610add8561099d565b830182610a84565b50505b505050565b600082821c905092915050565b6000610b0b60001984600802610aed565b1980831691505092915050565b6000610b248383610afa565b9150826002028217905092915050565b610b3d826103ad565b67ffffffffffffffff811115610b5657610b55610753565b5b610b60825461071d565b610b6b828285610aa7565b600060209050601f831160018114610b9e5760008415610b8c578287015190505b610b968582610b18565b865550610bfe565b601f198416610bac86610988565b60005b82811015610bd457848901518255600182019150602085019450602081019050610baf565b86831015610bf15784890151610bed601f891682610afa565b8355505b6001600288020188555050505b505050505050565b600073ffffffffffffffffffffffffffffffffffffffff82169050919050565b6000610c3182610c06565b9050919050565b610c4181610c26565b82525050565b6000610c62610c5d610c58846107d3565b610a0c565b61059f565b9050919050565b610c7281610c47565b82525050565b6000608082019050610c8d6000830187610c38565b610c9a6020830186610c69565b610ca76040830185610c69565b8181036060830152610cb98184610626565b90509594505050505056fea264697066735822122057774f0af7f5b740ebd52665c34d0e5b0a62621006d929f408d172948670676164736f6c63430008130033",
  "linkReferences": {},
  "deployedLinkReferences": {}
}