{
  "_format": "hh-sol-artifact-1",
  "contractName": "Board",
  "sourceName": "contracts/Board.sol",
  "abi": [
    {
      "anonymous": false,
      "inputs": [
        {
          "indexed": false,
          "internalType": "address",
          "name": "user",
          "type": "address"
        },
        {
          "indexed": false,
          "internalType": "uint256",
          "name": "x",
          "type": "uint256"
        },
        {
          "indexed": false,
          "internalType": "uint256",
          "name": "y",
          "type": "uint256"
        },
        {
          "indexed": false,
          "internalType": "string",
          "name": "color",
          "type": "string"
        }
      ],
      "name": "Placed",
      "type": "event"
    },
    {
      "inputs": [
        {
          "internalType": "uint256",
          "name": "",
          "type": "uint256"
        },
        {
          "internalType": "uint256",
          "name": "",
          "type": "uint256"
        }
      ],
      "name": "board",
      "outputs": [
        {
          "internalType": "string",
          "name": "",
          "type": "string"
        }
      ],
      "stateMutability": "view",
      "type": "function"
    },
    {
      "inputs": [
        {
          "internalType": "uint8",
          "name": "x",
          "type": "uint8"
        }
      ],
      "name": "getBoard",
      "outputs": [
        {
          "internalType": "string[50]",
          "name": "",
          "type": "string[50]"
        }
      ],
      "stateMutability": "view",
      "type": "function"
    },
    {
      "inputs": [
        {
          "components": [
            {
              "internalType": "address",
              "name": "user",
              "type": "address"
            },
            {
              "internalType": "uint8",
              "name": "x",
              "type": "uint8"
            },
            {
              "internalType": "uint8",
              "name": "y",
              "type": "uint8"
            },
            {
              "internalType": "string",
              "name": "color",
              "type": "string"
            }
          ],
          "internalType": "struct PlaceStruct",
          "name": "input",
          "type": "tuple"
        }
      ],
      "name": "place",
      "outputs": [],
      "stateMutability": "nonpayable",
      "type": "function"
    }
  ],
  "bytecode": "0x608060405234801561001057600080fd5b50610c7c806100206000396000f3fe608060405234801561001057600080fd5b50600436106100415760003560e01c806339b7f1aa146100465780638086a92a14610062578063e83410b314610092575b600080fd5b610060600480360381019061005b9190610370565b6100c2565b005b61007c600480360381019061007791906103ef565b6100d7565b60405161008991906104bf565b60405180910390f35b6100ac60048036038101906100a7919061051a565b61018d565b6040516100b99190610647565b60405180910390f35b6100d4816100cf9061089a565b610275565b50565b600082603281106100e757600080fd5b6032020181603281106100f957600080fd5b0160009150915050805461010c906108dc565b80601f0160208091040260200160405190810160405280929190818152602001828054610138906108dc565b80156101855780601f1061015a57610100808354040283529160200191610185565b820191906000526020600020905b81548152906001019060200180831161016857829003601f168201915b505050505081565b610195610310565b60008260ff16603281106101ac576101ab61090d565b5b60320201603280602002604051908101604052809291906000905b8282101561026a5783820180546101dd906108dc565b80601f0160208091040260200160405190810160405280929190818152602001828054610209906108dc565b80156102565780601f1061022b57610100808354040283529160200191610256565b820191906000526020600020905b81548152906001019060200180831161023957829003601f168201915b5050505050815260200190600101906101c7565b505050509050919050565b80606001516000826020015160ff16603281106102955761029461090d565b5b60320201826040015160ff16603281106102b2576102b161090d565b5b0190816102bf9190610ae8565b507f5a36643dd1c4d386649993a1f3dc54d93c52df759b783c7056d447bae7c88ea081600001518260200151836040015184606001516040516103059493929190610bfa565b60405180910390a150565b6040518061064001604052806032905b60608152602001906001900390816103205790505090565b6000604051905090565b600080fd5b600080fd5b600080fd5b6000608082840312156103675761036661034c565b5b81905092915050565b60006020828403121561038657610385610342565b5b600082013567ffffffffffffffff8111156103a4576103a3610347565b5b6103b084828501610351565b91505092915050565b6000819050919050565b6103cc816103b9565b81146103d757600080fd5b50565b6000813590506103e9816103c3565b92915050565b6000806040838503121561040657610405610342565b5b6000610414858286016103da565b9250506020610425858286016103da565b9150509250929050565b600081519050919050565b600082825260208201905092915050565b60005b8381101561046957808201518184015260208101905061044e565b60008484015250505050565b6000601f19601f8301169050919050565b60006104918261042f565b61049b818561043a565b93506104ab81856020860161044b565b6104b481610475565b840191505092915050565b600060208201905081810360008301526104d98184610486565b905092915050565b600060ff82169050919050565b6104f7816104e1565b811461050257600080fd5b50565b600081359050610514816104ee565b92915050565b6000602082840312156105305761052f610342565b5b600061053e84828501610505565b91505092915050565b600060329050919050565b600081905092915050565b6000819050919050565b600082825260208201905092915050565b60006105838261042f565b61058d8185610567565b935061059d81856020860161044b565b6105a681610475565b840191505092915050565b60006105bd8383610578565b905092915050565b6000602082019050919050565b60006105dd82610547565b6105e78185610552565b9350836020820285016105f98561055d565b8060005b85811015610635578484038952815161061685826105b1565b9450610621836105c5565b925060208a019950506001810190506105fd565b50829750879550505050505092915050565b6000602082019050818103600083015261066181846105d2565b905092915050565b600080fd5b7f4e487b7100000000000000000000000000000000000000000000000000000000600052604160045260246000fd5b6106a682610475565b810181811067ffffffffffffffff821117156106c5576106c461066e565b5b80604052505050565b60006106d8610338565b90506106e4828261069d565b919050565b600080fd5b600073ffffffffffffffffffffffffffffffffffffffff82169050919050565b6000610719826106ee565b9050919050565b6107298161070e565b811461073457600080fd5b50565b60008135905061074681610720565b92915050565b600080fd5b600080fd5b600067ffffffffffffffff8211156107715761077061066e565b5b61077a82610475565b9050602081019050919050565b82818337600083830152505050565b60006107a96107a484610756565b6106ce565b9050828152602081018484840111156107c5576107c4610751565b5b6107d0848285610787565b509392505050565b600082601f8301126107ed576107ec61074c565b5b81356107fd848260208601610796565b91505092915050565b60006080828403121561081c5761081b610669565b5b61082660806106ce565b9050600061083684828501610737565b600083015250602061084a84828501610505565b602083015250604061085e84828501610505565b604083015250606082013567ffffffffffffffff811115610882576108816106e9565b5b61088e848285016107d8565b60608301525092915050565b60006108a63683610806565b9050919050565b7f4e487b7100000000000000000000000000000000000000000000000000000000600052602260045260246000fd5b600060028204905060018216806108f457607f821691505b602082108103610907576109066108ad565b5b50919050565b7f4e487b7100000000000000000000000000000000000000000000000000000000600052603260045260246000fd5b60008190508160005260206000209050919050565b60006020601f8301049050919050565b600082821b905092915050565b60006008830261099e7fffffffffffffffffffffffffffffffffffffffffffffffffffffffffffffffff82610961565b6109a88683610961565b95508019841693508086168417925050509392505050565b6000819050919050565b60006109e56109e06109db846103b9565b6109c0565b6103b9565b9050919050565b6000819050919050565b6109ff836109ca565b610a13610a0b826109ec565b84845461096e565b825550505050565b600090565b610a28610a1b565b610a338184846109f6565b505050565b5b81811015610a5757610a4c600082610a20565b600181019050610a39565b5050565b601f821115610a9c57610a6d8161093c565b610a7684610951565b81016020851015610a85578190505b610a99610a9185610951565b830182610a38565b50505b505050565b600082821c905092915050565b6000610abf60001984600802610aa1565b1980831691505092915050565b6000610ad88383610aae565b9150826002028217905092915050565b610af18261042f565b67ffffffffffffffff811115610b0a57610b0961066e565b5b610b1482546108dc565b610b1f828285610a5b565b600060209050601f831160018114610b525760008415610b40578287015190505b610b4a8582610acc565b865550610bb2565b601f198416610b608661093c565b60005b82811015610b8857848901518255600182019150602085019450602081019050610b63565b86831015610ba55784890151610ba1601f891682610aae565b8355505b6001600288020188555050505b505050505050565b610bc38161070e565b82525050565b6000610be4610bdf610bda846104e1565b6109c0565b6103b9565b9050919050565b610bf481610bc9565b82525050565b6000608082019050610c0f6000830187610bba565b610c1c6020830186610beb565b610c296040830185610beb565b8181036060830152610c3b8184610486565b90509594505050505056fea264697066735822122017eab66c28840b4e465b479b5dd0935624bab0f43598501ff5e22965381147dd64736f6c63430008130033",
  "linkReferences": {},
  "deployedLinkReferences": {}
}